:020000040000FA
:04000000FEEFFFF020
:020000040001F9
:10FEE60012001200900E03011A6F540E1B6F1200BF
:10FEF60001EE01F10E0EEE6AE806FDE10001B7EF34
:10FF0600FFF0000EBE6E000EC66E000E0401006FFE
:10FF1600A00E00017F6F1200000E096E000E0A6E21
:10FF2600000E0B6E000E0C6E000E056E000E066EB9
:10FF3600000E076E000E086E120003011A9F0F1CBA
:10FF4600136E101C146E13C511F51450126E610059
:10FF560044F418F3610048F419F3B1507F0BB16E05
:10FF66001A5180091A6F1200048E73ECFFF08FECA1
:10FF7600FFF084ECFFF075ECFFF0D5ECFFF074ECCD
:10FF8600FFF0000E106E040E0F6EA0ECFFF0B1AE87
:10FF9600CFEFFFF0D1EFFFF0CAEFFFF0C0EFFFF0B9
:10FFA600FEEFFFF00D50D8A4DBEFFFF0DDEFFFF022
:10FFB600E9EFFFF000017D2B7D29D8A4E5EFFFF0E6
:10FFC600E7EFFFF0E9EFFFF0010E0D6E0D50D8A43C
:10FFD600EFEFFFF0F1EFFFF0FDEFFFF000017D071F
:10FFE6007D51D8A4F9EFFFF0FBEFFFF0FDEFFFF036
:0AFFF600000E0D6E12007BEFFFF00D
:020000040020DA
:10000000FF0FFF0FFF0FFF0FFF0FFF0FFF0FFF0F80
:10001000FF0FFF0FFF0FFF0FFF0FFF0FFF0FFF0F70
:020000040030CA
:0A0000008CFEFFFC9FFFFFFFFFFFD7
:00000001FF
