:020000040000FA
:04000000FEEFFFF020
:020000040001F9
:10FF140012001200120001EE01F1110EEE6AE80661
:10FF2400FDE10001B7EFFFF0000EBE6E000EC66EDD
:10FF3400000E0401006F800EBE6E000ECF6E000E28
:10FF4400086F300EC76E1200000E0D6E000E0E6E9E
:10FF5400000E0F6E000E106E000E096E000E0A6E7B
:10FF6400000E0B6E000E0C6E1200088E8AECFFF071
:10FF7400A6ECFFF096ECFFF08CECFFF0C8ECFFF081
:10FF84008BECFFF0C0EFFFF0FEEFFFF0BF0EBE18EA
:10FF9400D8A4CFEFFFF0D1EFFFF0D3EFFFF0800E46
:10FFA400BE6ECFAAD8EFFFF0DAEFFFF0EEEFFFF06E
:10FFB4000150021003100410D8A4E3EFFFF0E5EFA2
:10FFC400FFF0EEEFFFF0BE2A010E016E000E026E8E
:10FFD400000E036E000E046ECFBAF3EFFFF0F5EFE0
:10FFE400FFF0FDEFFFF0000E016E000E026E000E3A
:0CFFF400036E000E046E12008DEFFFF093
:020000040020DA
:10000000FF0FFF0FFF0FFF0FFF0FFF0FFF0FFF0F80
:10001000FF0FFF0FFF0FFF0FFF0FFF0FFF0FFF0F70
:020000040030CA
:0A0000008CFEFFFC9FFFFFFFFFFFD7
:00000001FF
