:020000040000FA
:04000000FEEFFFF020
:020000040001F9
:10FF3400120012001200900E03011A6F540E1B6F70
:10FF4400120001EE01F10D0EEE6AE806FDE100017A
:10FF5400DEEFFFF0000EBE6E000EC66E000E040152
:10FF6400006F800EBE6E1200000E096E000E0A6E47
:10FF7400000E0B6E000E0C6E000E056E000E066E6B
:10FF8400000E076E000E086E120003011A9F0E1C6D
:10FF9400126E0F1C136E12C510F51350116E610012
:10FFA40040F418F3610044F419F3B1507F0BB16EBF
:10FFB4001A5180091A6F1200048E9AECFFF0B6EC05
:10FFC400FFF0ACECFFF09DECFFF09CECFFF0BE9E6C
:10FFD4009BECFFF0030E0F6EE80E0E6EC7ECFFF005
:10FFE400B1AEF7EFFFF0F9EFFFF0F2EFFFF0BE8EE6
:0CFFF400E7EFFFF0FEEFFFF0A3EFFFF0DF
:020000040020DA
:10000000FF0FFF0FFF0FFF0FFF0FFF0FFF0FFF0F80
:10001000FF0FFF0FFF0FFF0FFF0FFF0FFF0FFF0F70
:020000040030CA
:0A0000008CFEFFFC9FFFFFFFFFFFD7
:00000001FF
